:020000040800F2
:10000000FFFF0020E1090008310500083D05000858
:10001000450500084D0500085505000800000000D2
:100020000000000000000000000000005D05000866
:10003000690500080000000075050008810500083A
:10004000310A0008310A0008310A0008310A0008A4
:10005000310A0008310A00088D050008310A00083D
:10006000310A0008310A0008310A0008310A000884
:10007000310A0008310A0008310A0008310A000874
:10008000310A0008310A0008310A000800000000A7
:10009000000000000000000000000000310A00081D
:1000A000310A0008310A0008310A0008310A000844
:1000B000310A0008310A0008310A0008310A000834
:1000C000310A0008310A0008310A0008310A000824
:1000D000310A0008310A0008310A00080000000057
:1000E000310A0008310A0008310A00080000000047
:1000F000000000000000000000000000310A0008BD
:1001000000000000310A0008310A0008310A000826
:1001100000000000000000000000000000000000DF
:10012000310A0008310A0008310A0008310A0008C3
:10013000310A00080000000000000000000000007C
:10014000000000000000000000000000310A00086C
:10015000310A0008310A0008310A0008310A000893
:10016000310A0008310A0008000000000000000009
:10017000000000000000000000000000000000007F
:1001800000000000310A000800000000000000002C
:04019000310A000828
:1001940010B5054C237833B9044B13B10448AFF3BD
:1001A40000800123237010BD3804002000000000EB
:1001B400340A0008084B10B51BB108480849AFF3CE
:1001C40000800848036803B910BD074B002BFBD01F
:1001D400BDE81040184700BF00000000340A0008C2
:1001E4003C0400203404002000000000154B002BC8
:1001F40008BF134B9D46A3F5803A00218B460F465A
:100204001348144A121A00F0A5FA0F4B002B00D021
:1002140098470E4B002B00D0984700200021040083
:100224000D000D48002802D00C4800F055FB00F0EA
:1002340069FA2000290000F063F900F053FA00BFC6
:1002440000000800000000000000000000000000A2
:100254003804002058040020DD080008E9080008DC
:1002640080B483B000AF0346FB71084997F90730A7
:100274005B09FA7902F01F02012000FA02F241F848
:1002840023200C37BD465DF8047B704700E100E095
:1002940080B483B000AF03463960FB7197F907302F
:1002A400002B0BDA0D49FB7903F00F03043B3A688A
:1002B400D2B21201D2B20B441A7609E0084997F976
:1002C40007303A68D2B21201D2B20B4483F8002349
:1002D4000C37BD465DF8047B704700BF00ED00E0BD
:1002E40000E100E080B500AF244A244B1B6B43F0CF
:1002F40009031363224A224B1B6843F0AA43136089
:10030400204A204B1B6823F0030313601C4A1C4B38
:100314005B6823F470435360194A194B9B6843F09C
:100324007F439360174A174B9B6843F00303936022
:10033400134A134BDB6823F07F43D360114A114BFC
:10034400DB6843F00203D3600F4B9B680E4B002223
:100354009A600E4A0D4B9B6843F0010393600B4A6D
:100364000A4B1B6843F00103136006200121FFF7C9
:100374008FFF0620FFF774FF80BD00BF00380240E6
:10038400000C02400000024000380140003C0140E3
:1003940080B483B000AF78600B467B807B689A6939
:1003A4007B881A437B689A610C37BD465DF8047BF1
:1003B400704700BF80B483B000AF78600B467B8089
:1003C4007B689B697A8812041A437B689A610C37AC
:1003D400BD465DF8047B704780B584B000AF78609B
:1003E4000B467B800023FB607B681A697B88134083
:1003F400002B0BD042F2107000F052F97B681A699E
:100404007B881340002B01D00123FB60FB68184656
:100414001037BD4680BD00BF80B483B000AF7860A4
:100424000C37BD465DF8047B704700BF80B483B0D1
:1004340000AF78600C37BD465DF8047B704700BFA1
:1004440080B582B000AF786018484FF48051FFF750
:10045400B1FF16484FF40051FFF79AFF13484FF4C9
:100464008041FFF7A7FF11484FF40041FFF790FFC9
:10047400786800F015F90D484FF48051FFF788FFB4
:100484000A484FF40051FFF795FF08484FF48041A4
:10049400FFF77EFF05484FF40041FFF78BFF7868B4
:1004A40000F0FEF80837BD4680BD00BF000C0240D6
:1004B40080B400AF104A104B1B6B43F0020313636C
:1004C4000D4A0D4B1B6C43F4001313640B4A0B4B86
:1004D4001B6A43F080631362084A084B5B6A43F06B
:1004E40040035362054A054B5B6843F41073536041
:1004F400BD465DF8047B70470038024000040240AA
:1005040080B500AFFFF7EEFE0548FFF799FF02E064
:100514000448FFF795FF044B1B68002BF8D1F3E761
:1005240020A10700A08601005404002080B400AF7D
:10053400BD465DF8047B704780B400AFFEE700BFA2
:1005440080B400AFFEE700BF80B400AFFEE700BF99
:1005540080B400AFFEE700BF80B400AFBD465DF8D5
:10056400047B704780B400AFBD465DF8047B7047E0
:1005740080B400AFBD465DF8047B704780B400AF23
:10058400BD465DF8047B704780B500AF0F4B5B69D7
:1005940003F00103002B17D041F2883000F080F8FB
:1005A40000BF0B480121FFF717FF0346002BF8D1CA
:1005B400084B1B6883F00103064A1360034A034B8C
:1005C4005B6943F00103536180BD00BF003C0140FF
:1005D400000002405404002080B400AF2C4A2C4B8D
:1005E4001B6823F08073136000BF294B1B6803F062
:1005F4000073002BF9D1264B264A5A60244A244B17
:100604001B6C43F080531364234A234B1B6823F46D
:10061400404313601E4B00229A601D4A1C4B9B688A
:1006240043F4A05393601A4A194B1B6843F4803374
:10063400136000BF164B1B6803F40033002BF9D082
:10064400164B40F202721A60114A114B1B6843F0B8
:100654008073136000BF0E4B1B6803F00073002B04
:10066400F9D00B4A0A4B9B6823F003039360084AB2
:10067400074B9B6843F00203936000BF044B9B68E5
:1006840003F00C03082BF9D1BD465DF8047B7047D9
:10069400003802400854410700700040003C02400A
:1006A40080B485B000AF78600023FB6005E0BB68D0
:1006B4000133BB60FB680133FB60FB681A467B684F
:1006C4009A42F4D31437BD465DF8047B704700BFEB
:1006D4006C0A0008000000203404002038040020C4
:1006E4005804002008B50021044600F08BF8044BA0
:1006F4001868C36B03B19847204600F05BF900BF4C
:10070400540A000870B50F4E0F4D761BB61018BF73
:10071400002405D0013455F8043B9847A642F9D18A
:100724000A4E0B4D761B00F085F9B61018BF002455
:1007340006D0013455F8043B9847A642F9D170BD60
:1007440070BD00BF600A0008600A0008680A00085B
:10075400600A000870B4840746D0541E002A41D0B1
:10076400CDB2034602E0621EE4B3144603F8015B13
:100774009A07F8D1032C2ED9CDB245EA05250F2CC2
:1007840045EA054519D903F110022646103E0F2EFD
:1007940042F8105C42F80C5C42F8085C42F8045CD5
:1007A40002F11002F2D8A4F1100222F00F0204F0B8
:1007B4000F041032032C13440DD91E462246043A6A
:1007C400032A46F8045BFAD8221F22F003020432FB
:1007D400134404F003042CB1C9B21C4403F8011BF4
:1007E400A342FBD170BC704714460346C2E700BF66
:1007F400024B13B1024800F06FB8704700000000CC
:10080400E90800082DE9F04F314B83B01B680093D1
:1008140003F5A47381460E460193009BD3F84871F7
:1008240027B3DDF804A07C68651E0ED4013407EB01
:1008340084044FF00008E6B1D4F80031B34218D074
:10084400013D6B1CA4F10404F5D1224B73B17B6808
:10085400002B36D13B68002B34D03846CAF8003020
:10086400AFF30080DAF80070002FDCD103B0BDE8EC
:10087400F08F7B682268013BAB420CBF7D60C4F8FB
:100884000080002ADCD0D7F88831D7F804B00121E1
:10089400A940194208D190477B685B45BDD1DAF87D
:1008A4000030BB42CCD0B8E7D7F88C31194204D120
:1008B4004846D4F880109047EEE7D4F8800090477B
:1008C400EAE73B68BA461F46002FACD1CEE700BF2B
:1008D400540A0008000000000146002002460346B6
:1008E40000F016B838B5084B084DED1AAC1018BF17
:1008F400ED1805D0013C55F8043D9847002CF9D17A
:10090400BDE8384000F09CB8680A00086C0A00088A
:100914002DE9F047254C2568D5F848410646884618
:1009240092469946CCB360681F2818DC431C7EB1FC
:1009340004EB80050121C5F888A0D4F8887101FA78
:1009440000F21743022EC4F88871C5F808911ED02E
:100954000230636044F820800020BDE8F087144B27
:1009640003B34FF4C870AFF300800446D0B1D5F898
:100974004831002780E88800C5F8484138460123FB
:10098400C4F88871C4F88C71002EE1D0D0E7D4F893
:100994008C110A43C4F88C21DAE705F5A674C5F86E
:1009A4004841C0E74FF0FF30BDE8F087540A000823
:1009B400000000004FF0FF3100F000B8062930B508
:1009C4000CBF044D044D182420462946ABBE0446F2
:1009D400204630BD2300020026000200DFF834D098
:1009E400002103E00C4B5B58435004310B480C4B83
:1009F40042189A42F6D30B4A02E0002342F8043B21
:100A0400094B9A42F9D3FFF7E7FDFFF77BFEFFF7A7
:100A140077FD7047FFFF00206C0A000800000020EB
:100A2400340400203804002058040020FEE70000AD
:100A340000000000F8B500BFF8BC08BC9E46704733
:0C0A4400F8B500BFF8BC08BC9E46704727
:080A5000430000000800002033
:080A580098F7FF7F0100000088
:080A6000F5070008B9010008C8
:040A680095010008EC
:100A6C00000000000000000000000000F402002064
:100A7C005C030020C4030020000000000000000004
:100A8C00000000000000000000000000000000005A
:100A9C00000000000000000000000000500A0008E8
:100AAC00000000000000000000000000000000003A
:100ABC00000000000000000000000000000000002A
:100ACC00000000000000000000000000000000001A
:100ADC00000000000000000000000000000000000A
:100AEC0000000000000000000000000000000000FA
:100AFC0000000000000000000000000000000000EA
:100B0C0000000000000000000000000000000000D9
:100B1C0001000000000000000E33CDAB34126DE676
:100B2C00ECDE05000B0000000000000000000000DF
:100B3C0000000000000000000000000000000000A9
:100B4C000000000000000000000000000000000099
:100B5C000000000000000000000000000000000089
:100B6C000000000000000000000000000000000079
:040E9C00080000202A
:040EA000000000004E
:04000005080009E105
:00000001FF
